:020000040800F2
:100000002005002051350008311D0008331D00086F
:10001000371D00083B1D00083F1D000800000000C0
:10002000000000000000000000000000431D000868
:10003000451D000800000000471D0008491D00087C
:100040006B3500086B3500086B3500086B35000810
:100050006B3500086B3500086B3500086B35000800
:100060006B3500086B3500086B3500086B350008F0
:100070006B3500086B3500086B3500086B350008E0
:100080006B3500086B3500086B3500086B350008D0
:100090006B3500086B3500086B3500086B350008C0
:1000A0006B3500086B3500086B3500086B350008B0
:1000B0006B3500086B3500086B3500086B350008A0
:1000C0006B3500086B3500086B3500086B35000890
:1000D0006B3500086B3500086B3500081F1E0008E3
:1000E0006B3500086B3500086B350008DFF80CD065
:1000F00006F010FD00480047D91C0008200500202C
:1001000031490143314A1160704770B50021002325
:100110000F22C4780CB32D4C246804F4E064C4F5B9
:10012000E064210AC1F10403CA40447804FA03F1EF
:100130008478144021430901254C0678A1550478A0
:1001400004F01F050124AC4005786D114FF0E02646
:1001500006EB8505C5F8004109E0047804F01F05A9
:100160000124AC401B4D0678761145F8264070BD41
:10017000194A0A400243154B1B1F1A60704739B1D8
:10018000124A121D12680243104B1B1D1A6006E032
:100190000E4A121D126882430C4B1B1D1A607047D9
:1001A000042808D14FF0E021096941F004014FF023
:1001B000E022116107E04FF0E021096921F004011C
:1001C0004FF0E022116170470000FA050CED00E0ED
:1001D00000E400E080E100E080FFFF1F10B504466E
:1001E000CA48844208D10121042000F027FB0021E5
:1001F000042000F023FB46E0C548844208D10121D9
:10020000082000F01BFB0021082000F017FB3AE05B
:10021000C048844208D10121102000F00FFB0021CA
:10022000102000F00BFB2EE0BB48844208D10121D6
:10023000202000F003FB0021202000F0FFFA22E044
:10024000B648844208D10121402000F0F7FA00218D
:10025000402000F0F3FA16E0B148844208D10121B1
:10026000802000F0EBFA0021802000F0E7FA0AE09D
:10027000AC48844207D10121801500F0DFFA00214B
:10028000A01500F0DBFA10BD10B50121084600F002
:10029000D5FA0021012000F0D1FA10BD2DE9F0417E
:1002A000024600250026002000230024002791F8A4
:1002B00003C00CF00F0591F803C01CF0100F03D021
:1002C00091F802C04CEA050591F800C0BCF1000F9E
:1002D00031D0146800202BE04FF0010C0CFA00F331
:1002E000B1F800C00CEA03069E4220D183004FF013
:1002F0000F0C0CFA03F7BC4305FA03FC4CEA0404A8
:1003000091F803C0BCF1280F06D14FF0010C0CFA94
:1003100000FCC2F814C00AE091F803C0BCF1480F19
:1003200005D14FF0010C0CFA00FCC2F810C0401CC3
:100330000828D1D31460B1F800C0BCF1FF0F34DD40
:10034000546800202EE000F1080C4FF0010808FA74
:100350000CF3B1F800C00CEA03069E4221D18300E1
:100360004FF00F0C0CFA03F7BC4305FA03FC4CEA00
:10037000040491F803C0BCF1280F05D100F1080C6A
:1003800008FA0CF8C2F8148091F803C0BCF1480FC9
:1003900007D100F1080C4FF0010808FA0CF8C2F878
:1003A0001080401C0828CED35460BDE8F0814FF681
:1003B000FF710180022181700421C17070470246E3
:1003C000002093680B4201D0012000E0002070471C
:1003D0000146886880B2704702460020D3680B420D
:1003E00001D0012000E0002070470146C86880B2BB
:1003F000704701617047416170470AB1016100E0D7
:1004000041617047C16070474FF480320A43826196
:100410008161826182698269704702460020424B95
:1004200018684FF68073184040EA021008433E4BAC
:10043000186070473D49C8617047F0B50A4600230F
:1004400000240021002500F00046B6F1004F02D143
:10045000354EF16901E0344E7168C0F3034583B253
:1004600000F44016B6F5401F08D121F070612E4E01
:10047000766826F070662C4F7E6012E000F48016DD
:10048000B6F5801F06D1032606FA05F4A14341F014
:10049000706106E0460D360103FA06F6B14341F0FD
:1004A000706122B1460D360103FA06F6314300F0C1
:1004B0000046B6F1004F02D11B4EF16101E01A4E29
:1004C0007160F0BD30B500228B071C0F0F2303FABB
:1004D00004F2154B08338C1053F824309343124C1C
:1004E00008348D1044F8253023468C1053F82430FE
:1004F0008C07240F00FA04F423430B4C08348D10AE
:1005000044F8253030BD0A490860704700080140B2
:10051000000C01400010014000140140001801408F
:10052000001C01400020014000000140000020426A
:10053000DC002042DD48006840F00100DB49086033
:1005400008464068DA490840D849486008460068CB
:10055000D8490840D54908600846006820F4802042
:1005600008600846406820F4FE0048604FF41F0011
:1005700088607047CD49096821F48031CB4A116009
:100580001146096821F480211160B0F5803F03D045
:10059000B0F5802F0ED106E0C449096841F48031DE
:1005A000C24A116007E0C149096841F4A021BF4A6D
:1005B000116000E000BF00BF704710B50146002287
:1005C000002300204A11012A02D1B84C236806E01A
:1005D000022A02D1B54C236A01E0B44C636A01F0EF
:1005E0001F02012494401C4201D0012000E00020A1
:1005F00010BD38B5002000900024002500BF312038
:10060000FFF7DBFF05460098401C00900098B0F50E
:10061000A06F01D0002DF2D03120FFF7CEFF08B13E
:10062000012400E00024204638BD014600209F4AF6
:10063000106820F0F80040EAC100106070479E4941
:100640000860704702460020984B586820F47C10E0
:1006500042EA01031843954B586070479649086673
:10066000704701460020914A506820F0030008437B
:10067000506070478D48406800F00C00704701469C
:1006800000208A4A506820F0F0000843506070470C
:1006900001460020854A506820F4E060084350601D
:1006A000704701460020814A506820F4605040EABB
:1006B000C1005060704729B17C4A527A02437B4B9B
:1006C0005A7204E0794A527A8243784B5A727047E0
:1006D0007A490860704701460020744A506820F447
:1006E00040400843506070470021754A11706F4ABE
:1006F00082F82010012802D0042808D103E001214B
:100700006F4A117004E005216D4A117000E000BFCE
:1007100000BF70476B49086070476449096A01432C
:10072000624A11627047674944390860704730B5C2
:1007300000210022002400235C4D6D6805F00C01AF
:1007400021B1042905D0082923D105E05E4D0560BB
:1007500022E05D4D05601FE0544D6D6805F4701298
:10076000524D6D6805F48034022505EB92421CB9A8
:10077000564D554305600BE04C4D6D6815F4003F38
:1007800003D0524D5543056002E04F4D554305607F
:1007900002E04D4D056000BF00BF444D6D6805F09F
:1007A000F00109094A4D6B5C0568DD4045603F4D2D
:1007B0006D6805F4E061090A454D6B5C4568DD40F4
:1007C00085603A4D6D6805F46051C90A404D6B5C17
:1007D0004568DD40C560354D6D6805F44041890BC5
:1007E0003C4D6B5CC568B5FBF3F5056130BD29B1C7
:1007F0002E4A526902432D4B5A6104E02B4A52693A
:1008000082432A4B5A61704729B1284A92690243B0
:10081000264B9A6104E0254A92698243234B9A61F0
:10082000704729B1214AD2690243204BDA6104E0C2
:100830001E4AD26982431D4BDA61704729B11B4AB7
:10084000D2680243194BDA6004E0184AD268824346
:10085000164BDA60704729B1144A12690243134BF0
:100860001A6104E0114A12698243104B1A61704701
:1008700014494039086070470F49C86470470B49F4
:10088000C87170470948406A40F080700749486263
:10089000704701460020054A92680A4201D00120B3
:1008A00000E0002070470149887270470010024044
:1008B0000000FFF8FFFFF6FE00004242D80042426F
:1008C000201002408004424200127A0000093D00DC
:1008D000000000201000002010B50446FE488442AD
:1008E00008D10121C014FFF7A9FF0021E014FFF790
:1008F000A5FFC4E0B4F1804F08D101210846FFF7FD
:10090000AAFF00210120FFF7A6FFB8E0F3488442C8
:1009100008D101210220FFF79EFF00210220FFF7EE
:100920009AFFACE0EE48844208D101210420FFF791
:1009300092FF00210420FFF78EFFA0E0E9488442E7
:1009400008D101210820FFF786FF00210820FFF7CA
:1009500082FF94E0E448844208D101211020FFF78F
:100960007AFF00211020FFF776FF88E0DF488442FD
:1009700008D101212020FFF76EFF00212020FFF782
:100980006AFF7CE0DA48844208D101214014FFF775
:1009900055FF00216014FFF751FF70E0D5488442F5
:1009A00009D10121C804FFF749FF00214FF40020BD
:1009B000FFF744FF63E0D048844209D101210805D4
:1009C000FFF73CFF00214FF48010FFF737FF56E0A0
:1009D000CA48844209D101214805FFF72FFF0021B1
:1009E0004FF40010FFF72AFF49E0C548844208D1C0
:1009F00001214020FFF72FFF00214020FFF72BFFB0
:100A00003DE0C048844208D101218020FFF723FF48
:100A100000218020FFF71FFF31E0BB48844208D14E
:100A200001218015FFF717FF0021A015FFF713FF25
:100A300025E0B648844209D101210804FFF7FEFEF3
:100A400000214FF48030FFF7F9FE18E0B0488442EF
:100A500009D101214804FFF7F1FE00214FF40030D5
:100A6000FFF7ECFE0BE0AB48844208D1012188047B
:100A7000FFF7E4FE00214FF48020FFF7DFFE10BDFA
:100A800000220288944B98420ED0994B98420BD08A
:100A9000B0F1804F08D0914B984205D0904B9842CE
:100AA00002D0904B984204D14FF68F731A404B8876
:100AB0001A438D4B984207D08C4B984204D04FF686
:100AC000FF431A40CB881A4302808B8883850B88AA
:100AD0000385814B98420BD0854B984208D08B4BB5
:100AE000984205D08A4B984202D08A4B984201D155
:100AF0000B7A038601238382704770B5002400229D
:100B00000023058C4FF6FE7635400584028C8388E1
:100B1000048B4FF68F752C40B51E2C400D882C434E
:100B2000751E2A400D892A434D882A436A4DA842E2
:100B30000BD06F4DA84208D0744DA84205D0744D1B
:100B4000A84202D0734DA84213D14FF6F7752A4040
:100B50004D892A434FF6FB752A408D882A434FF66C
:100B6000FF652B404FF6FF552B408D892B43CD89D8
:100B70002B4383800483CD888586028470BD70B545
:100B8000002400220023058C4FF6EF7635400584C3
:100B9000028C8388048B48F6FF752C404FF6FF4586
:100BA0002C400D884FF6FF7606EA05252C434FF6BC
:100BB000DF752A400D8906EA05152A434D8806EAA5
:100BC00005152A43444DA84202D0494DA8421DD1E3
:100BD0004FF67F752A404D894FF6FF7606EA0515D8
:100BE0002A434FF6BF752A408D8806EA05152A4329
:100BF0004FF6FF352B404FF2FF752B408D8906EAEB
:100C000085052B43CD8906EA85052B438380048324
:100C1000CD880587028470BD70B5002400220023B2
:100C2000058C4FF6FF6635400584028C8388848BE3
:100C30004FF68F752C404FF6FC752C400D882C43D9
:100C40004FF6FF552A400D894FF6FF7606EA052537
:100C50002A434D8806EA05252A431F4DA84202D0A3
:100C6000234DA8421DD14FF2FF752A404D894FF602
:100C7000FF7606EA05252A434FF6FF352A408D8880
:100C800006EA05252A434EF6FF752B404DF6FF7503
:100C90002B408D8906EA05152B43CD8906EA0515FB
:100CA0002B4383808483CD888587028470BD70B593
:100CB000002200230024058C4EF6FF763540058483
:100CC000038C8488828B48F6FF752A404FF6FF45D7
:100CD0002A400D8820E00000002C01400004004064
:100CE00000080040000C00400010004000140040CC
:100CF00000340140004C01400050014000540140CC
:100D000000180040001C004000200040004001404E
:100D100000440140004801404FF6FF7606EA0525F1
:100D20002A434DF6FF752B400D8906EA05352B4306
:100D30004D8806EA05352B43FA4DA84202D0FA4DFC
:100D4000A84208D14BF6FF752C408D894FF6FF76EF
:100D500006EA85152C4384808283CD88A0F8405014
:100D6000038470BD828B4FF2FF331A408283828BE3
:100D70004FF6FF7303EA01231A4382837047F0B5ED
:100D80000C461546002200210026078C4EF6FF7CFB
:100D900007EA0C070784828B018C4FF6FF7707EA7E
:100DA000043640F6FF473A404FF6FF7707EA05273B
:100DB0003A434FF6FF7707EA03373A43D94FB84231
:100DC0000ED0D94FB8420BD0B0F1804F08D0D74FDA
:100DD000B84205D0D64FB84202D0D64FB84206D15D
:100DE0004DF6FF77394046F48057394305E047F622
:100DF000FF57394044F48057394382830184F0BD62
:100E0000828B4FF6F3731A408283828B0A4382836C
:100E10007047F0B50C461546002200210026078CCD
:100E20004FF6FF6C07EA0C070784828B018C4FF6A4
:100E3000FF7707EA04264FF60C773A404FF6FF7724
:100E400007EA03172F433A43B64FB8420ED0B64FC6
:100E5000B8420BD0B0F1804F08D0B44FB84205D0A3
:100E6000B34FB84202D0B34FB84206D14FF6FF5746
:100E7000394046F48077394305E04FF2FF57394057
:100E800044F48077394382830184F0BD028B4FF2B2
:100E9000FF331A400283028B4FF6FF7303EA0123EC
:100EA0001A4302837047F0B50C4615460022002114
:100EB0000026078C4FF6EF7C07EA0C070784028BAD
:100EC000018C4FF6FF7707EA041640F6FF473A40D9
:100ED0004FF6FF7707EA03373A434FF6FF7707EA03
:100EE00005273A438F4FB8420ED08F4FB8420BD0F0
:100EF000B0F1804F08D08D4FB84205D08C4FB8422A
:100F000002D08C4FB84206D14FF6DF77394046F019
:100F10001007394305E04FF65F77394044F010077A
:100F2000394302830184F0BD028B4FF6F3731A40FC
:100F30000283028B0A4302837047F0B50C461546C4
:100F400000220021068C4FF6FE773E400684028B7D
:100F5000018C4FF60C7632407E1C06EA03162E43B7
:100F60003243704EB0420ED06F4EB0420BD0B0F153
:100F7000804F08D06D4EB04205D06D4EB04202D0C9
:100F80006C4EB04206D14FF6FD76314044F001067A
:100F9000314305E04FF6F576314044F00106314328
:100FA00002830184F0BD70B505460C465D4885425C
:100FB0000ED05D4885420BD0B5F1804F08D05B481C
:100FC000854205D05A48854202D05A48854200D110
:100FD00000E000BF208850B92389A2886188284694
:100FE000FFF7ABFFE1882846FFF79EFF25E020884A
:100FF00004280AD12389A28861882846FFF753FF75
:10100000E1882846FFF742FF17E0208808280AD128
:101010002389A28861882846FFF7FBFEE1882846DD
:10102000FFF7EEFE09E02389A28861882846FFF7D2
:10103000A6FEE1882846FFF795FE70BD2DE9F04138
:1010400005460C4600260127608808B9022600E004
:101050000026A088012801D1022700E0012720886E
:10106000A0B92389A28861882846FFF766FFE18836
:101070002846FFF759FF23893A4631462846FFF7AD
:1010800012FFE1882846FFF701FF13E02389A288B9
:1010900061882846FFF707FFE1882846FFF7F6FE3C
:1010A00023893A4631462846FFF747FFE18828461C
:1010B000FFF73AFFBDE8F0810A884B881A438B8816
:1010C0001A43CB881A430B891A434B891A438B89DD
:1010D0001A43A0F8442070474FF6FF718180002129
:1010E0000180C180418001727047002101804180F0
:1010F0008180C180018141818181C181704700214E
:1011000001804180012181800021C18001817047DF
:101110000021018041808180C180018141818181E4
:1011200070470000002C01400034014000040040E2
:1011300000080040000C004021B1028842F001028A
:10114000028004E002884FF6FE731A400280704766
:1011500031B1B0F8442042F40042A0F8442005E048
:10116000B0F84420C2F30E02A0F8442070471AB130
:1011700083890B43838102E083898B43838170479A
:101180008182704741EA0203A0F8483070471AB1E3
:1011900083890B43838102E083898B43838170477A
:1011A00001894FF6F8721140018170470A4600210B
:1011B00001894FF68F73194011430181704730B593
:1011C00004460D4629462046FFF7F0FF208940F0EF
:1011D0000700208130BD2DE9F04104460D4616463A
:1011E0001F46602D06D13B46012231462046FFF7BF
:1011F0005AFE05E03B46012231462046FFF79DFEA0
:1012000029462046FFF7D2FF208940F007002081C1
:10121000BDE8F08130B50C4600210189C9B24FF616
:10122000FF7505EA0325154325432943018130BD98
:101230002DE9F04105460E461746984600244346E0
:101240003A4631462846FFF7E5FF2C894FF6F870FD
:10125000044044F007044FF68F70044044F07004DB
:101260002C81BDE8F081F0B504460D4616461F46B8
:101270003B46324629462046FFF7CCFF208940F402
:1012800080402081F0BD0185828270470A4600219E
:1012900001884FF68F731940114301807047F0B5F4
:1012A0000C4615461E460021002200230189028BB0
:1012B000038C4FF6F877394021434FF6FC473A400C
:1012C00040F201173A434FF6DD773B404FF6FF7788
:1012D00007EA06172F433B43018102830384F0BDD5
:1012E0000A460021018B4FF68F7319401143018389
:1012F00070470A460021018B48F6FF7319404FF6EC
:10130000FF7303EA02231943018370470A46002151
:10131000818B4FF68F7319401143818370470A46C2
:101320000021818B48F6FF7319404FF6FF7303EAE3
:10133000022319438183704721B1028842F0800261
:10134000028004E002884FF67F731A4002807047E3
:1013500021B1828842F00402828004E082884FF644
:10136000FB731A408280704721B1828842F00802E4
:10137000828004E082884FF6F7731A4082807047BB
:1013800021B1828842F00102828004E082884FF617
:10139000FE731A40828070470A460021018B4FF687
:1013A000F77319401143018370470A460021018BEE
:1013B0004FF2FF7319404FF6FF7303EA02231943FC
:1013C000018370470A460021818B4FF6F77319405D
:1013D0001143818370470A460021818B4FF2FF73CE
:1013E00019404FF6FF7303EA0223194381837047C4
:1013F0000A460021018B4FF6FB731940114301830C
:1014000070470A460021018B4FF6FF3319404FF613
:10141000FF7303EA02231943018370470A46002140
:10142000818B4FF6FB7319401143818370470A4645
:101430000021818B4FF6FF3319404FF6FF7303EA0B
:1014400002231943818370470A460021018B4FF61E
:101450007F7319401143018370470A460021018BB5
:10146000C1F30E014FF6FF7303EA02231943018310
:1014700070470A460021818B4FF67F731940114354
:10148000818370470A460021818BC1F30E014FF61C
:10149000FF7303EA02231943818370470A46002140
:1014A000018C4FF6FD7319401143018470470A46C1
:1014B0000021018C4FF6F7731940114301847047E6
:1014C0000A460021018C4FF6DF7319404FF6FF7377
:1014D00003EA02131943018470470A460021018C74
:1014E0004FF67F7319404FF6FF7303EA0213194357
:1014F000018470470A460021018C4FF6FF531940C2
:101500004FF6FF7303EA02231943018470470A462A
:101510000021018C4FF2FF7319404FF6FF7303EA6D
:1015200002231943018470470A460021018C4DF6BD
:10153000FF7319404FF6FF7303EA02331943018426
:10154000704730B5002301248C40A3B2048C9C4327
:101550000484048C02FA01F5ADB22C43048430BD3E
:1015600030B5002304248C40A3B2048C9C43048433
:10157000048C02FA01F5ADB22C43048430BD70B581
:101580000346002000241846183001258D40ACB2D7
:101590001D8CA5431D8409B1082909D100EB610008
:1015A000056825F0700505600568154305600EE0C7
:1015B0000D1FC5F34E052844056825F4E045056078
:1015C00005684FF6FF7606EA02263543056070BDD2
:1015D00021B1028842F00202028004E002884FF644
:1015E000FD731A400280704721B1028842F0040264
:1015F000028004E002884FF6FB731A4002807047B5
:1016000021B1828842F08002828004E082884FF615
:101610007F731A408280704702884FF6F7731A4032
:10162000028002880A430280704782884FF68F73D7
:101630001A40828082880A438280704702894FF66E
:10164000F8731A40028102890A43028170470289B5
:101650004FF67F731A40028102890A430281704764
:101660008184704781857047818670470187704704
:1016700081877047A0F84010704702884FF6FF43FB
:101680001A40028002880A43028070470146888E11
:1016900070470146088F70470146888F70470146A2
:1016A000B1F8400070470146888C70470146088DAC
:1016B000704702460020138A0B4201D0012000E04F
:1016C00000207047CA430282704730B502460020AE
:1016D00000230024158A05EA0103958905EA01041F
:1016E00013B10CB1012000E0002030BDCA430282DA
:1016F0007047000010B50446FB48844209D101211F
:101700008803FFF79BF800214FF48040FFF796F81D
:1017100032E0F648844209D101214804FFF79BF8E2
:1017200000214FF40030FFF796F825E0F04884429E
:1017300009D101218804FFF78EF800214FF48020A1
:10174000FFF789F818E0EB48844209D10121C80469
:10175000FFF781F800214FF40020FFF77CF80BE041
:10176000E548844208D101210805FFF774F80021FB
:101770004FF48010FFF76FF810BD2DE9F04786B0E9
:1017800005460E460024A24600BFA1460027B089A8
:1017900000B100BF2F462C8A4CF6FF700440F08841
:1017A00004432C82AC894EF6F3100440B088318992
:1017B0000843718908430443AC81AC8A4FF6FF406B
:1017C0000440B0890443AC8201A8FEF7B0FFC648CC
:1017D000874202D1DDF810A001E0DDF80CA0A88955
:1017E00010F4004F08D00AEBCA0000EB0A10316871
:1017F0004900B0FBF1F807E00AEBCA0000EB0A1061
:1018000031688900B0FBF1F86420B8FBF0F0040106
:101810002009642101FB1089A88910F4004F08D029
:10182000322000EBC900B0FBF1F000F007000443E8
:1018300008E0322000EB09106421B0FBF1F000F069
:101840000F0004432C8106B0BDE8F0874FF4165119
:10185000016000218180C18001810C214181002132
:101860008181704710B502460020108A4FF2FF03B5
:1018700018400B884C8823438C882343CC8823430F
:101880001843108210BD0021018041808180C180F9
:10189000704721B1828942F40052828104E082893A
:1018A0004DF6FF731A4082817047F0B5034600245D
:1018B000002600250020A1F510676A3F00D100BF77
:1018C0001846C1F3421401F01F06012707FA06F576
:1018D000012C01D10C3004E0022C01D1103000E0C9
:1018E00014301AB107682F43076002E00768AF435E
:1018F0000760F0BD1AB1838A0B43838202E0838ABA
:101900008B4383827047028A4FF6F0731A4002823B
:10191000028A0A430282704782894FF2FF731A409B
:10192000828182890A438281704721B1828942F093
:101930000202828104E082894FF6FD731A4082819F
:101940007047028A4FF6DF731A400282028A0A4306
:101950000282704721B1028A42F48042028204E08E
:10196000028A4BF6FF731A4002827047C1F30802E5
:101970008280704701468888C0F3080070478189DB
:1019800041F0010181817047028BD2B20283028B48
:1019900042EA012202837047028B02F47F420283F3
:1019A000028B0A430283704721B1828A42F02002EF
:1019B000828204E0828A4FF6DF731A408282704787
:1019C00021B1828A42F01002828204E0828A4FF6BC
:1019D000EF731A408282704721B1828A42F0080276
:1019E000828204E0828A4FF6F7731A40828270473F
:1019F00021B1828942F40042828103E08289C2F3EC
:101A00000E028281704721B1828A42F40062828292
:101A100004E0828A4FF2FF731A4082827047828A02
:101A20004FF6FB731A408282828A0A438282704791
:101A300021B1828A42F00202828204E0828A4FF659
:101A4000FD731A408282704702460020B1F5007F84
:101A500000D100BF13880B4201D0012000E000201C
:101A6000704701F40072B2F5007F00D100BFCA4395
:101A70000280704770B50246002400230025002034
:101A8000A1F510666A3E00D100BFC1F3421501F016
:101A90001F03012606FA03F3012D02D19689334074
:101AA00006E0022D02D1168A334001E0968A3340C7
:101AB0000C12012606FA04F41688344013B10CB156
:101AC000012000E0002070BD10B500220023A1F528
:101AD00010646A3C00D100BF0A1201249440A3B2F2
:101AE000DC43048010BD0000003801400044004089
:101AF00000480040004C0040005000400CB5002061
:101B0000019000906B48006840F48030694908609B
:101B100000BF6848006800F4003000900198401C45
:101B20000190009818B90198B0F5A06FF1D1614803
:101B3000006810F4003F02D00120009001E0002076
:101B400000900098012842D15B48006840F01000E6
:101B5000594908600846006820F0030008600846FC
:101B6000006840F0020008605248406851494860EF
:101B70000846406848600846406840F48060486015
:101B80000846406820F47C1048600846406840F4ED
:101B9000E81048600846006840F08070086000BFA8
:101BA0004448006810F0007FFAD04248406820F0B6
:101BB0000300404948600846406840F00200486021
:101BC00000BF3C48406800F00C000828F9D10CBD6B
:101BD00010B5FFF793FF10BD10B53648006840F010
:101BE00001003449086008464068344908403149DA
:101BF000486008460068324908402E490860084697
:101C0000006820F4802008600846406820F4FE0048
:101C100048604FF41F008860FFF7DAFF4FF0006064
:101C20002849086010BD10B5002100200022214B7A
:101C30005B6803F00C0121B1042906D0082928D1E2
:101C400007E0214B214C236027E01F4B1F4C2360F2
:101C500023E0184B5B6803F47010164B5B6803F4C9
:101C60008032022303EB904022B9194B4343174CB7
:101C700023600DE00F4B5B6813F4003F04D0144B5E
:101C80004343124C236003E00F4B43430F4C23604C
:101C900003E00D4B0D4C236000BF00BF054B5B689C
:101CA000C3F303130B4CE15C084B1B68CB40074CA0
:101CB000236010BD00100240002002400000FFF829
:101CC000FFFFF6FE08ED00E000127A00140000208D
:101CD00000093D001800002000F0B0F800F0CEF838
:101CE00000F005F900F0D2FA00F038FA00F05AFBE3
:101CF00000F08FFB01F040FB0A2000F021FC00F017
:101D000023FF00F0C5FB00F02BFC10210748FEF775
:101D100072FB4FF0E020006940F001004FF0E0213D
:101D2000086101E000F07AFEFCE70000000C0140D1
:101D3000704700BFFEE700BFFEE700BFFEE700BF41
:101D4000FEE770477047704710B535480078401C73
:101D50003349087033480078401C3249087000F05D
:101D6000E4FD31480078401C2F49087000F0A6FEC1
:101D70002B480078052805DB00202949087000F071
:101D800003FD4BE026480078012816D100F044FFFF
:101D900026480078401C2549087008460078C82865
:101DA00006DB0020087008212148FEF724FB35E0FF
:101DB00008211F48FEF71DFB30E019480078022873
:101DC00004D100F0FBFB00F07DFC27E01448007814
:101DD000032810D117480078401C1649087008469F
:101DE00000780A281ADB00F00EFD00201149087067
:101DF0000C49087012E00A48007804280ED10E48F9
:101E00000078401C0C49087007480078282805DB3A
:101E1000002008700449087000F047FE10BD7047AC
:101E20003D0000203F000020400000203C0000203A
:101E3000000C01403E0000204100002008B50121B7
:101E40000920FEF7E1FC01210A48FEF7F6FA182006
:101E5000ADF8000003208DF8020010208DF803007B
:101E600069460548FEF71AFA18210348FEF7C1FA39
:101E700008BD000000023000000C014000B585B034
:101E8000012144F20400FEF7BFFC4FF40070ADF8EE
:101E9000100018208DF8130003208DF8120004A9FB
:101EA000AA48FEF7FBF94FF48060ADF8100004205B
:101EB0008DF8130004A9A548FEF7F0F94FF4165069
:101EC00000900020ADF80400ADF80600ADF8080061
:101ED000ADF80C000C20ADF80A0069469C48FFF7ED
:101EE0004CFC01219A48FFF7D4FC05B000BD00B5B9
:101EF00085B001218804FEF794FC01210820FEF73B
:101F000083FC4FF48060ADF8100018208DF81300AA
:101F100003208DF8120004A98E48FEF7BFF94FF494
:101F20000060ADF8100004208DF8130004A9894862
:101F3000FEF7B4F94FF4165000900020ADF80400FD
:101F4000ADF80600ADF80800ADF80C000C20ADF8B7
:101F50000A0069468048FFF710FC01217E48FFF720
:101F600098FC05B000BD08B54FF4E060FEF7C8F876
:101F700027208DF8000000208DF8010001208DF849
:101F800002008DF803006846FEF7BFF808BD70B583
:101F900004460D46E1B26E48FFF7E8FC00BF402161
:101FA0006B48FFF751FD0128F9D1204670BDF0B50F
:101FB00003460D461646002729460A2E03D0002068
:101FC00008702846F0BD33B9302001F8010B00201D
:101FD00008702846F6E7002B03DA2D2001F8010BE4
:101FE0005B4242F210720DE093FBF2F404B937B198
:101FF00004F1300001F8010B04FB123301270A2021
:1020000092FBF0F2002AEFDC002008702846D9E7A6
:102010000FB470B586B006460CA8019073E00B981B
:1020200000785C281CD10B98401C0B9000786E281F
:1020300009D072280FD10D213046FFF797FC0B987D
:10204000401C0B900BE00A213046FFF78FFC0B98E9
:10205000401C0B9003E00B98401C0B9000BF4BE022
:102060000B980078252840D10B98401C0B900078E5
:10207000642818D0732833D1019810C801900BE060
:1020800021783046FFF772FC00BF40213046FFF751
:10209000DBFC0028F9D0641C20780028F0D10B98D4
:1020A000401C0B9020E0019820C801900A2202A950
:1020B0002846FFF77CFF02AC0BE021783046FFF7A3
:1020C00055FC00BF40213046FFF7BEFC0028F9D088
:1020D000641C20780028F0D10B98401C0B9003E082
:1020E0000B98401C0B9000BF06E00B9810F8011BEA
:1020F0000B903046FFF73AFC00BF40213046FFF717
:10210000A3FC0028F9D00B980078002887D106B0EE
:1021100070BC5DF814FB10B5044621460C48FFF76F
:1021200025FC00BF40210A48FFF78EFC0128F9D1A9
:1021300010BD70B505462C4603E02078FFF7EBFF95
:10214000641C20780028F8D170BD00000008014010
:1021500000380140000C01400048004008B5012152
:102160000820FEF751FB4FF47040ADF8000010203E
:102170008DF8030003208DF802006946C048FEF781
:102180008DF84FF47041BE48FEF733F908BD08B52D
:1021900001210846FEF745FB01210420FEF734FB30
:1021A0000C20ADF8000018208DF8030003208DF8F6
:1021B00002006946B348FEF771F808BD30B587B034
:1021C00000250024FF20ADF814000320ADF8100016
:1021D0000020ADF81600ADF8120004A94FF08040C1
:1021E000FEF74EFC6020ADF800000120ADF80200C3
:1021F000ADF806500020ADF8080069464FF0804069
:10220000FEF70AFD0821C806FFF7DCF80120ADF84B
:102210000200ADF8064069468007FEF748FD082138
:10222000C806FFF7D8F801218807FFF785F80121D4
:102230008807FEF781FF07B030BD2DE9FF41044656
:102240000D4627462E466020ADF800000120ADF86F
:102250000200ADF806700020ADF8080069464FF0A6
:102260008040FEF7D9FC0821C806FFF7ABF8012033
:10227000ADF80200ADF8066069468007FEF717FD6D
:102280000821C806FFF7A7F8BDE8FF8110B5FFF7E2
:102290007EFFFFF793FF10BD00B587B0012102203C
:1022A000FEF7BFFA01210420FEF7AEFA6846FEF7FA
:1022B0007EF8C020ADF8000004208DF803006946C8
:1022C0007048FDF7EBFF7048FEF706FB04A8FEF729
:1022D00003FF0020ADF810004FF6FF70ADF81400BA
:1022E0000020ADF81600ADF8120004A96648FEF70C
:1022F000C7FB00231A4603216348FEF7D0FF01A85D
:10230000FEF7FDFE0020ADF80C0001A95E48FEF7C7
:102310004AFE01215C48FEF70FFF07B000BD00B583
:1023200087B001210420FEF77CFA01210820FEF786
:102330006BFA6846FEF73BF8C020ADF800000420B9
:102340008DF8030069464E48FDF7A8FF4F48FEF799
:10235000C3FA04A8FEF7C0FE0020ADF810004FF647
:10236000FF70ADF814000020ADF81600ADF81200B3
:1023700004A94648FEF784FB00231A46032143487C
:10238000FEF78DFF01A8FEF7BAFE0020ADF80C00A5
:1023900001A93E48FEF707FE01213C48FEF7CCFEAE
:1023A00007B000BD1FB501210420FEF72DFA8020E3
:1023B000ADF80C0004208DF80F0003208DF80E00FE
:1023C00003A93048FDF76AFF01210220FEF729FA30
:1023D0002D48FEF781FA4FF6FF70ADF8040000209B
:1023E000ADF80000ADF80600ADF8020069462648D9
:1023F000FEF746FB00231A4660212348FEF7EBFE5A
:1024000000212148FFF72CF901211F48FEF794FE17
:102410001FBD1FB501210820FEF7F6F98020ADF899
:102420000C0004208DF80F0003208DF80E0003A986
:102430001348FDF733FF01210420FEF7F2F913489A
:10244000FEF74AFA4FF6FF70ADF804000020ADF831
:102450000000ADF80600ADF8020069460B48FEF733
:102460000FFB00231A4660210848FEF7B4FE002146
:102470000648FFF7F5F801210448FEF75DFE1FBD91
:10248000000C01400008014000040040000800402A
:1024900030B5274800684FF47A72B0FBF2F1B1F121
:1024A000807F01D301201BE021F07F40401E4FF0D0
:1024B000E022506150170F22002806DA13011D4C4C
:1024C00000F00F052D1F635502E013011A4C235431
:1024D00000BF00204FF0E022906107201061002033
:1024E00008B100BFFEE74FF0E020006920F00100D6
:1024F0004FF0E021086130BD01B510490098086037
:102500004FF0E020006940F001004FF0E021086149
:1025100000BF0A4800680028FBD108BD07480068D2
:1025200020B106480068401E04490860704700005A
:102530001400002018ED00E000E400E02800002076
:10254000002107E042F6E06100BF0A00A1F10103AB
:1025500099B2FAD10200A0F1010398B2F2D170470A
:102560000020FE490880FE490880FE490860FE49B7
:102570000860FE490860FE490860FE490860FE499F
:102580000860FE490860FE490860FE490860FE498F
:102590000860FE490860FE490860FE490860FE497F
:1025A0000860FE490860FE490860FE490860FE496F
:1025B0000870FE490870FE490870704770B54FF00A
:1025C0008141FC48006803F013FFED490860FA49B7
:1025D000B1F9000004F0A1F80646F8480168304659
:1025E00003F00CFF0446F6480168E548006803F074
:1025F00005FF0546214603F0A9FEE449086070BDC9
:102600002DE9F04104460D46002C0CDA4FF4004150
:10261000EC48FDF7EEFE4FF48041EA48FDF7EBFE93
:10262000604204B20AE04FF48041E648FDF7E1FE63
:102630004FF40041E348FDF7DEFE00BF002D0CDA49
:102640004FF48051DF48FDF7D4FE4FF40051DD48D0
:10265000FDF7D1FE684205B20AE04FF40051D948B7
:10266000FDF7C7FE4FF48051D648FDF7C4FE00BF0A
:10267000AFB2A6B2FF2F00DDFF27FF2E00DDFF2641
:1026800039464FF08040FEF7F3FF31464FF080406F
:10269000FEF7F0FFCC49BA48006804F0C3F805D350
:1026A000CA49B748006804F0B3F809D200214FF0D6
:1026B0008040FEF7DDFF00214FF08040FEF7DAFF9B
:1026C000BDE8F08170B5B0480168B048006803F01B
:1026D0008FFE0446AB480168204603F089FEAD49F1
:1026E0000860A9480168A948006803F081FE044613
:1026F000A4480168204603F029FEA549086000218E
:10270000A448006804F08EF807D20021A1480068B0
:1027100003F01CFE9F4908600CE000219D48006802
:1027200004F076F806D200219A48006803F060FEB3
:102730009849086000219648006804F073F807D2B1
:1027400000219348006803F001FE914908600CE005
:1027500000218F48006804F05BF806D200218C4805
:10276000006803F045FE8A4908608948006803F064
:10277000F3FF04B28748006803F0EEFF05B221467C
:102780002846FFF73DFF70BD70B59148FEF78BFFFF
:1027900004469048FEF787FF054600208C49243107
:1027A00008808C492431088020B26D49088028B205
:1027B0006A49088000217748006804F033F805D39F
:1027C00067480088404200B265490880002170488F
:1027D000006804F027F805D360480088404200B242
:1027E0005E490880624800685D49B1F900100844FC
:1027F0005F4908605D4800685849B1F90010084415
:102800005A49086070BD2DE9F05F59490968574A77
:102810001268881803F08FFF064600226E4B03F003
:102820000AFF044603F0D8FF5349086000204F49CF
:1028300008604F4908605048006803F0BAFF064638
:102840004FF03332654B03F0F6FE04460D4649481F
:10285000006803F0AEFF06464FF06632604B03F0AF
:10286000EAFE804622462B4603F03EFE824603F0F7
:10287000B3FF41490860084600683E4908603E4889
:10288000006803F096FF0646564A574B03F0D3FE06
:10289000044603F0A1FF384908600846016837483C
:1028A000006803F053FD354908603C48016833482F
:1028B000006803F04BFD314908600846006803F0EA
:1028C0004BFF40F6F611884202DD48482B4908606C
:1028D0002A48006803F040FF4549884202DA45482B
:1028E0002649086044480068444908602348016854
:1028F000002003F07DFD064641480168304603F0A4
:102900007DFD04461C480168002003F071FD064669
:102910003C480168304603F071FD0546214603F04E
:1029200015FD35490860BDE8F09F2DE9F0413348B9
:1029300001683148006803F05BFD06461C480078DA
:10294000401C03F0EAFE0746314603F057FD0546FA
:102950002D4903F089FD0446284857E06200002015
:10296000600000206800002064000020700000204B
:102970006C00002078000020740000207C00002003
:102980005C00002090000020440000205000002047
:102990005800002054000020840000208000002007
:1029A000880000208C0000203D0000203E00002018
:1029B0003F000020B4000020C000002030000020B4
:1029C0002C000020000C014000003443000034C300
:1029D00000040040000800400000E03F3333D33FD4
:1029E0006666E63FB76DDBB66DDBA63F00601F4550
:1029F0000AF6FFFF00601FC54C00002048000020C1
:102A000038000020340000200000484201682046C1
:102A100003F09CFC39490860BDE8F08110B500BFA7
:102A200020213748FFF710F80128F9D13448001D5C
:102A30000088C4B220213248FFF713F8092C2CD2A9
:102A4000DFE804F02B09050D1115191D24002D4890
:102A50002D49086027E02D482B49086023E02C48C9
:102A60002C4908601FE02C482A4908601BE02B48CD
:102A70002549086017E02A482349086013E02948DF
:102A80002949086029482A4908600CE02548264958
:102A9000086026482649086005E000201A490860B9
:102AA0001C49086000BF00BF10BD224800682249D1
:102AB0000860184800681F49086070472DE9F04118
:102AC0001D4801681B48006803F092FC06461B483D
:102AD0000078401C03F021FE0746314603F08EFCCF
:102AE0000546174903F0C0FC044613480168204618
:102AF00003F02CFC13490860BDE8F081440000207D
:102B0000004800400000164480000020000096C3EA
:102B10000000484284000020000048C20000C84273
:102B20000000C8C20000A04134000020CDCCCC3D44
:102B3000380000208C000020880000204000002089
:102B4000000048439000002070B5002401F06DF9AA
:102B50000446002C5FD179A0FFF7EBFA782000F053
:102B6000C6FD18B97EA0FFF7E4FA02E084A0FFF7E3
:102B7000E0FA782000F0A8FF18B98CA0FFF7D9FA86
:102B800002E093A0FFF7D5FA642001F07EF818B9AF
:102B90009BA0FFF7CEFA02E0A3A0FFF7CAFA02F06B
:102BA00029FC18B9A9A0FFF7C4FA02E0B4A0FFF706
:102BB000C0FAC24803F0F5FA054602F025FC18B940
:102BC000BFA0FFF7B6FA02E0C7A0FFF7B2FA40F2E3
:102BD000731003F05AF818B9CFA0FFF7AAFA02E071
:102BE000D6A0FFF7A6FA642002F0C8FD18B9DFA04E
:102BF000FFF79FFA02E0E6A0FFF79BFA03F0E5FA81
:102C0000012002F03DF918B9ECA0FFF792FA02E0BA
:102C1000F3A0FFF78EFA70BD2DE9F04F89B0FB48A5
:102C2000FB49FC4BFC4ACDE90010FC49FC4803F091
:102C30008BF9F748008810F4807F7DD0F64908684A
:102C400003F06BFD04464FF09D4103F00DFCF54988
:102C50000860F149486803F060FD04464FF09D416B
:102C600003F002FCF0490860EB49886803F055FD69
:102C700004464FF09D4103F0F7FBEC490860E6493C
:102C8000C86803F04AFD04464FF09D4103F0ECFB99
:102C9000E7490860E34801684FF0804003F0AEFB6D
:102CA0000690E2480168069803F0A8FB8246DE48D9
:102CB00001684FF0404003F0A1FB0690DC4801683A
:102CC000069803F09BFB8346514603F03FFB0790B9
:102CD00003F06FFD064604F017F880464FF06632A9
:102CE000D44B03F0A8FC044603F076FDD2490860FB
:102CF000CE4801684FF0804003F080FB0390CB4842
:102D00000168039803F07AFB8246C74801684FF0D8
:102D1000404003F073FB0390C3480168039803F03D
:102D20006DFB8346514603F063FB81464FF07E51B5
:102D300003F00CFB044681E107E200006D70752092
:102D4000696E697469616C697A6174696F6E206318
:102D50006F6D706C6574652E2E2E2E2E2E0A20003F
:102D60006D70755F7365745F73656E736F722063EA
:102D70006F6D706C657465202E2E2E2E2E2E0A001F
:102D80006D70755F7365745F73656E736F722063CA
:102D90006F6D65206163726F7373206572726F72FD
:102DA000202E2E2E2E2E2E0A000000006D70755F34
:102DB000636F6E6669677572655F6669666F2063CB
:102DC0006F6D706C657465202E2E2E2E2E2E0A00CF
:102DD0006D70755F636F6E6669677572655F666952
:102DE000666F20636F6D65206163726F737320651A
:102DF00072726F72202E2E2E2E2E2E0A00000000D0
:102E00006D70755F7365745F73616D706C655F7213
:102E100061746520636F6D706C657465202E2E2E55
:102E20002E2E2E0A000000006D70755F7365745FB2
:102E300073616D706C655F72617465206572726F2D
:102E400072202E2E2E2E2E2E0A000000646D705F32
:102E50006C6F61645F6D6F74696F6E5F64726976C9
:102E600065725F6669726D7761726520636F6D7000
:102E70006C657465202E2E2E2E2E2E0A000000006A
:102E8000646D705F6C6F61645F6D6F74696F6E5FAE
:102E90006472697665725F6669726D7761726520CA
:102EA000636F6D65206163726F7373206572726FFB
:102EB00072202E2E2E2E2E2E0A00000094000020AE
:102EC000646D705F7365745F6F7269656E74617451
:102ED000696F6E20636F6D706C657465202E2E2E89
:102EE0002E2E2E0A00000000646D705F7365745F03
:102EF0006F7269656E746174696F6E20636F6D6562
:102F0000206163726F7373206572726F72202E2E50
:102F10002E2E2E2E0A000000646D705F656E6162B9
:102F20006C655F6665617475726520636F6D706C4A
:102F3000657465202E2E2E2E2E2E0A00646D705F75
:102F4000656E61626C655F6665617475726520634C
:102F50006F6D65206163726F7373206572726F723B
:102F6000202E2E2E2E2E2E0A00000000646D705F83
:102F70007365745F6669666F5F7261746520636F05
:102F80006D706C657465202E2E2E2E2E2E0A00007C
:102F9000646D705F7365745F6669666F5F7261749C
:102FA0006520636F6D65206163726F737320657256
:102FB000726F72202E2E2E2E2E2E0A006D70755FCF
:102FC0007365745F646D705F737461746520636FA3
:102FD0006D706C657465202E2E2E2E2E2E0A00002C
:102FE0006D70755F7365745F646D705F7374617429
:102FF0006520636F6D65206163726F737320657206
:10300000726F72202E2E2E2E2E2E0A00CE00002041
:10301000CC000020BC00002000010020C6000020E1
:10302000C0000020A0000020A4000020A800002074
:10303000AC00002066A64C40B000002003F0B9FBB5
:10304000CDE90401424801684FF0804003F0D6F911
:10305000834640480168584603F0D0F981463E480F
:1030600001684FF0804003F0C9F983463B4801688E
:10307000584603F0C3F98246494603F067F904460F
:1030800003F097FB0746DDE9042304F08DF84FF0C9
:103090006632334BCDE9060103F0CDFA054603F065
:1030A0009BFB304908602D480168006803F0A6F9D1
:1030B000039029480168006803F0A0F902902548B0
:1030C0000168006803F09AF98346214801680068A6
:1030D00003F094F95946019003F038F982460299B9
:1030E00003F086F98146039903F082F9044603F060
:1030F00060FBCDE90401194801681548006803F038
:103100007DF98246144801681248006803F076F998
:103110008346514603F01AF981464FF0804103F08F
:103120006DF9044603F045FB0746DDE9042304F08E
:103130003BF84FF066320A4BCDE9060103F07BFA0B
:10314000054603F049FB0849086009B0BDE8F08F67
:10315000A0000020A4000020A8000020AC00002057
:1031600066A64C40B4000020B800002008B5072037
:10317000009002E00098401E009000980028F9D1CD
:1031800008BD10B54FF40070E349086040100860B6
:10319000FFF7ECFFE04808380068002000B110BDE0
:1031A0004FF40070DC49091D0860FFF7DFFFDA48C3
:1031B0000838006810F4007F01D00020EFE74FF4DA
:1031C0000070D549091D0860FFF7D0FF0120E6E730
:1031D00010B54FF48070D049091D0860FFF7C6FF95
:1031E0004FF40070CC49091D0860FFF7BFFF4FF492
:1031F0008070C9490860FFF7B9FF4FF40070C649F5
:103200000860FFF7B3FF10BD10B54FF48070C249DE
:10321000091D0860FFF7AAFF4FF40070BE49091DA1
:103220000860FFF7A3FF4FF48070BB490860FFF709
:103230009DFF4FF48070B849091D0860FFF796FFA5
:1032400010BD10B54FF48070B349091D0860FFF739
:103250008DFF4FF40070B0490860FFF787FF4FF40F
:103260008070AD490860FFF781FF4FF48070AA4974
:10327000091D0860FFF77AFF10BD10B54FF480708C
:10328000A549091D0860FFF771FF4FF40070A249BE
:103290000860FFF76BFF4FF480709F490860FFF7ED
:1032A00065FF9D480838006810F4007F06D04FF491
:1032B00080709949091D0860002010BD4FF480708E
:1032C0009549091D08600120F7E770B504460825F7
:1032D0001DE04FF480709049091D0860FFF746FF1C
:1032E00014F0800F04D04FF400708B49086004E0A4
:1032F0004FF400708849091D08606006040EFFF74E
:1033000035FF4FF4807084490860FFF72FFF2800D5
:10331000A5F10101CDB2DCD14FF480707E49091DC9
:10332000086070BD70B508250024A8017A490860BE
:1033300016E06006040E4FF480707749091D08609E
:10334000FFF714FF4FF4807073490860FFF70EFF1A
:1033500071480838006810F4007F01D044F001047F
:103360002800A5F10101CDB2E3D14FF480706A4984
:10337000091D0860204670BD08B501210820FDF731
:1033800043FA4FF44070ADF8000002208DF80200BF
:1033900014208DF8030069465F481038FCF77EFF63
:1033A00008BD2DE9F04105460E4617469846FFF741
:1033B000E8FE10B90020BDE8F081002141EA450196
:1033C000C8B2FFF782FFFFF758FF18B9FFF700FFF9
:1033D0000020F0E73046FFF778FFFFF74EFF0024AC
:1033E0000BE018F80400FFF770FFFFF746FF18B96D
:1033F000FFF7EEFE0020DEE7641CBC42F1DBFFF7C6
:10340000E7FE0120D7E72DE9F04104460D461646B8
:103410001F463B46324629462046FFF7C2FF10B101
:103420000020BDE8F0814FF0FF30FAE72DE9F041D0
:1034300005460F4614461E46FFF7A3FE10B90020AE
:10344000BDE8F081002141EA4501C8B2FFF73DFF28
:10345000FFF713FF18B9FFF7BBFE0020F0E738466F
:10346000FFF733FFFFF709FFFFF78BFE012101EBA9
:103470004501C8B2FFF729FFFFF7FFFE0CE0FFF799
:1034800051FF3070012C02D1FFF7DBFE01E0FFF7A6
:10349000BBFE761C601EC4B2002CF0D1FFF798FE74
:1034A0000120CDE72DE9F04104460D4616461F46A2
:1034B0003B46324629462046FFF7B8FF10B10020B0
:1034C000BDE8F0814FF0FF30FAE770B504460D46D5
:1034D0001646FFF756FE08B9002070BD002141EAEC
:1034E0004401C8B2FFF7F1FEFFF7C7FE18B9FFF7B6
:1034F0006FFE0020F1E72846FFF7E7FEFFF7BDFE6D
:103500003046FFF7E2FEFFF7B8FEFFF761FE01204D
:10351000E3E7002070470000100C0140014605E081
:10352000002001E0421CD0B20A28FBDB0A00A1F116
:103530000101F5D1704710B5044603E04FF47A70ED
:10354000FFF7ECFF2000A4F10104F7D110BD704794
:103550000648804706480047FEE7FEE7FEE7FEE72D
:10356000FEE7FEE7FEE7FEE7FEE7FEE7D91B000801
:10357000ED00000838B50446FB4890F82400C0B1BF
:1035800014B10220009001E000200090F64A126879
:10359000D17BF54A526810786B460122FFF733FF62
:1035A00010B14FF0FF3038BD9DF80010EE48417467
:1035B00023E0ED48807A10B94FF0FF30F3E724B1F3
:1035C000E948407C08B10020EDE714B101200090EB
:1035D00001E000200090E44A1268D17BE24A526880
:1035E00010786B460122FFF70EFF10B14FF0FF304D
:1035F000D9E79DF80010DC4841740020D3E738B5C6
:10360000002419E0D8480068C07AA04204D0D64807
:103610000068407DA04200D10CE0D3494968087899
:103620006B4601222146FFF73DFF10B14FF0FF30FE
:1036300038BD00BF601CC4B2CB4840680079A042CE
:10364000E0DC0020F4E770B504460D46C64800688B
:10365000C07AA04204D0C4480068407DA04202D194
:103660004FF0FF3070BDC04840680079A04202DCD6
:103670004FF0FF30F6E7BC49496808782B46012235
:103680002146FFF70FFFEDE738B50446B64890F83E
:103690002300A04201D1002038BD14B13020009099
:1036A00001E000200090B048807C20B19DF800002F
:1036B00040F002000090AC4890F8220020B19DF844
:1036C000000040F080000090A74A1268117DA64AD1
:1036D000526810786B460122FFF795FE10B14FF04B
:1036E000FF30D9E7A04880F823400020D4E738B560
:1036F000044614F0700F02D00120009005E014B1D0
:103700000020009001E040200090974A1268917CD0
:10371000954A526810786B460122FFF774FE20B17B
:10372000002191488172481E38BD9DF8000020F0AC
:1037300040018D4801730020009014F0400F04D127
:103740009DF8000040F00400009014F0200F04D118
:103750009DF8000040F00200009014F0100F04D11A
:103760009DF8000040F00100009014F0080F04D113
:103770009DF8000040F0380000907B4A1268D17C30
:10378000794A526810786B460122FFF73CFE20B15F
:10379000002175488172481EC6E724B1082C02D06A
:1037A0000020FFF771FF70488472002101753220FC
:1037B000FFF7C1FE0020B7E738B504466A48807CB1
:1037C000A04201D1002038BD002C46D0664A1268C4
:1037D0001179654A526810786B460122FFF762FE44
:1037E00010B14FF0FF30EEE79DF8000020F0200010
:1037F00000905D4A126811795B4A526810786B46F6
:103800000122FFF700FE10B14FF0FF30DBE703208D
:10381000FFF791FE02200090534890F8220020B15B
:103820009DF8000040F0800000904F4890F8230081
:1038300020B19DF8000040F0300000904A4A126824
:10384000117D494A526810786B460122FFF7DBFD73
:10385000002851D04FF0FF30B5E7434A1268117984
:10386000414A526810786B460122FFF71BFE10B1E7
:103870004FF0FF30A7E73C48807A10F0010F05D0E9
:103880009DF8000040F02000009004E09DF800004A
:1038900020F020000090344A12681179324A5268B0
:1038A00010786B460122FFF7AEFD10B14FF0FF30EC
:1038B00089E70320FFF73FFE2B4890F8220010B164
:1038C0008020009001E000200090274890F823001D
:1038D00020B19DF8000040F030000090224A1268AC
:1038E000117D214A526810786B460122FFF78BFD4B
:1038F00010B14FF0FF3066E71B488474002062E788
:1039000008B51948807A10B94FF0FF3008BD002083
:103910000090154A1268D17B134A526810786B46A2
:103920000122FFF770FD10B14FF0FF30EEE70E4AB5
:10393000126851790C4A526810786B460122FFF7E1
:1039400062FD10B14FF0FF30E0E7074A12681179CD
:10395000054A526810786B460122FFF754FD28B1E2
:103960004FF0FF30D2E70000D0000020F74890F879
:103970002400002853D00C200090F44A12681179DA
:10398000F24A526810786B460122FFF73CFD10B1F5
:103990004FF0FF30BAE73220FFF7CDFDC020009096
:1039A000EA48807A10F0010F04D09DF8000040F042
:1039B00020000090E54A12681179E44A52681078B4
:1039C0006B460122FFF71FFD10B14FF0FF309DE75E
:1039D000DE48407C10B10220009001E00020009001
:1039E000DA4A1268D17BD94A526810786B460122B4
:1039F000FFF709FD10B14FF0FF3087E7002000907E
:103A0000D24A12685179D14A526810786B46012225
:103A1000FFF7F9FC002855D04FF0FF3076E704207F
:103A20000090CA4A12681179C84A526810786B46E9
:103A30000122FFF7E8FC10B14FF0FF3066E7C34802
:103A4000807C20B9C148807A10F0010F02D140205B
:103A5000009001E060200090BC4A12681179BB4AD6
:103A6000526810786B460122FFF7CDFC10B14FF081
:103A7000FF304BE73220FFF75EFDB448407C10B1C9
:103A80000120009001E000200090B04A1268D17B34
:103A9000AE4A526810786B460122FFF7B4FC10B1B1
:103AA0004FF0FF3032E7A94A12685179A74A5268AD
:103AB0001078A64B10330122FFF7A5FC10B14FF090
:103AC000FF3023E7002021E770B50446002624F0EC
:103AD00001049E4890F8240008B1002070BD9B4866
:103AE000807A10B94FF0FF30F8E79848057C807A6B
:103AF0002040964908740846007CA04202D04FF04E
:103B0000FF3600E0002614B99048007D18B101206E
:103B1000FFF730FD02E00020FFF72CFD3CB1FFF77E
:103B2000EFFE20B1894805744FF0FF30D6E73046EC
:103B3000D4E738B504468548807A10B94FF0FF3095
:103B400038BDBC2C02DB0120009015E0622C02DBAA
:103B50000220009010E02A2C02DB032000900BE0F2
:103B6000142C02DB0420009006E00A2C02DB052066
:103B7000009001E0062000907448C07A9DF8001083
:103B8000884201D10020DBE7704A126891786F4AC1
:103B9000526810786B460122FFF735FC10B14FF0E8
:103BA000FF30CDE79DF800106848C1720020C7E7DC
:103BB00038B50446282C02DD4FF0FF3038BDDCB9A3
:103BC0000020FFF761FD00208DF8000007208DF830
:103BD00001005E4A1268917C5C4A526810786B461C
:103BE0000222FFF710FC10B14FF0FF30E6E7002192
:103BF000564801750020E1E70120FFF745FD202030
:103C00008DF80000012C06D100208DF80100052060
:103C1000FFF78FFF17E0052C06DC01208DF801006F
:103C20000520FFF786FF0EE0142C06DC02208DF83D
:103C300001000A20FFF77DFF05E003208DF8010059
:103C40001420FFF776FF9DF80100072101EB80109B
:103C5000C0B28DF801003D4A1268917C3B4A52681F
:103C600010786B460222FFF7CEFB10B14FF0FF3009
:103C7000A4E70821354881720021017301210175F3
:103C80000020FFF721FF002098E738B504462F48B1
:103C9000807A10B94FF0FF3038BD2C4890F82400DE
:103CA00010B14FF0FF30F7E72848007D50B134B134
:103CB000282C04DCE0B2FFF77BFF0020ECE70020BB
:103CC000FFF776FF042C01DA042404E0B4F57A7FD0
:103CD00001DD4FF47A744FF47A7090FBF4F0401EDB
:103CE000C0B20090194A12685178184A5268107888
:103CF0006B460122FFF787FB10B14FF0FF30CBE797
:103D00009DF80000401C4FF47A7191FBF0F081B2F5
:103D10000E48C1810146C9894810FFF70AFF0020FB
:103D2000BAE738B504460948807A10B94FF0FF3039
:103D300038BD022C06D0042C0AD0082C0BD0102C35
:103D40000FD10BE0002000900EE00000D00000201A
:103D50000820009008E01020009005E01820009056
:103D600002E04FF0FF30E3E700BFF848407A9DF8EB
:103D70000010B0EBE10F01D10020D9E7F34A12683F
:103D8000D179F24A526810786B460122FFF73BFB6B
:103D900010B14FF0FF30CBE79DF80000C110EB48A9
:103DA00041720020C4E738B50446E848807A10B96B
:103DB0004FF0FF3038BDFA2C09D0B4F5FA7F09D0A6
:103DC000B4F57A7F09D0B4F5FA6F0CD108E0002081
:103DD00000900BE00820009008E01020009005E023
:103DE0001820009002E04FF0FF30E3E700BFD74813
:103DF000007A9DF80010B0EBE10F01D10020D9E767
:103E0000D24A12689179D14A526810786B460122E1
:103E1000FFF7F9FA10B14FF0FF30CBE79DF8000043
:103E2000C010CA4908720020C4E71CB580208DF874
:103E30000000C64A1268917CC44A526810786B46EA
:103E40000122FFF7E0FA10B14FF0FF301CBD6420F3
:103E5000FFF771FB00208DF80000BC4A1268917CCE
:103E6000BA4A526810786B460122FFF7CCFA10B1BB
:103E70004FF0FF30EAE7B54A1268917DB34A5268C5
:103E800010786B460622FFF70DFB10B14FF0FF30A4
:103E9000DCE79DF80500C007400F9DF8031001F016
:103EA000010140EA41009DF8011001F0010140EAE2
:103EB00001048CB1012C03D10121A448C17430E06C
:103EC000022C03D10021A148C1742AE0A0A0FEF772
:103ED00030F94FF0FF30B9E79C4A1268D1789B4A1D
:103EE000526810786B460122FFF7DCFA10B14FF0F0
:103EF000FF30ABE79DF8000000F00F042CB99E489E
:103F0000FEF717F94FF0FF30A0E7042C06D19BA075
:103F1000FEF70FF901218D48C17402E000218B48A2
:103F2000C174FF2189488172FF2088490872FF21EE
:103F300086484172C1724FF6FF71C181FF21017441
:103F400081740121017380F82210002180F8231070
:103F5000417501751630016041608160163880F846
:103F6000241080F82510C1844FF4FA60FFF71BFF7E
:103F700010B14FF0FF3069E70220FFF7D2FE10B119
:103F80004FF0FF3062E72A20FFF7D3FD10B14FF06A
:103F9000FF305BE73220FFF778FE10B14FF0FF30C3
:103FA00054E70020FFF790FD10B14FF0FF304DE7D0
:103FB0000020FFF701FC10B14FF0FF3046E7002072
:103FC000FFF795FB002041E77CB504460D465F48AE
:103FD000807A10F0700F02D14FF0FF307CBD5B4A49
:103FE0001268117B594A526810786B460622FFF717
:103FF00059FA10B14FF0FF30F0E79DF801009DF83D
:10400000001040EA012000B220809DF803009DF8D6
:10401000021040EA012000B260809DF805009DF882
:10402000041040EA012000B2A08015B12846FFF735
:104030008EFA0020D2E77CB504460D464348807ACC
:1040400010F0080F02D14FF0FF307CBD3F4A1268DC
:10405000517B3E4A526810786B460622FFF722FADF
:1040600010B14FF0FF30F0E79DF801009DF800100F
:1040700040EA012000B220809DF803009DF8021064
:1040800040EA012000B260809DF805009DF8041010
:1040900040EA012000B2A08015B12846FFF757FA88
:1040A0000020D2E72DE9FE4F05460C462748807ACE
:1040B00018B94FF0FF30BDE8FE8F244A1268917B9B
:1040C000224A5268107802AB0222FFF7EBF910B1D6
:1040D0004FF0FF30EFE79DF809009DF8081040EA27
:1040E000012006B214B12046FFF731FA174949689A
:1040F000C88802F01BFB154901904968B1F9080016
:1041000002F00BFB8346304602F007FB5946009055
:1041100002F06EF98246019902F0A6F981461F4924
:1041200002F014F980464FF08F4102F067F907461C
:1041300002F012FB28600020BDE710B588B00446ED
:104140001CB94FF0FF3008B010BD29E0D0000020AE
:10415000556E737570706F7274656420736F6674DA
:10416000776172652070726F647563742072657612
:104170002025642E0A000000C873000848616C66A0
:104180002073656E736974697669747920706172E1
:104190007420666F756E642E0A00000000000C42E9
:1041A000206830B9606820B9A06810B9002008B054
:1041B00010BDF8494968087806AB03221146FFF79D
:1041C00071F910B14FF0FF30F1E79DF818000821A8
:1041D00001EB201000F00F00ADF800009DF8190071
:1041E00001EB201000F00F00ADF802009DF81A005E
:1041F00001EB201000F00F00ADF804002068410032
:10420000BDF90000403091FBF0F000B2ADF81000B5
:1042100060684100BDF90200403091FBF0F000B24F
:10422000ADF81200A0684100BDF90400403091FBD8
:10423000F0F000B2ADF81400D6494968087806AB32
:1042400006221146FFF72EF910B14FF0FF30AEE70E
:104250009DF819009DF8181040EA012000B2ADF851
:1042600008009DF81B009DF81A1040EA012000B2DA
:10427000ADF80A009DF81D009DF81C1040EA0120D1
:1042800000B2ADF80C00BDF81000BDF808100844ED
:1042900000B2ADF81000BDF81200BDF80A100844D5
:1042A00000B2ADF81200BDF81400BDF80C100844BF
:1042B00000B2ADF81400BDF81000000A8DF8180027
:1042C000BDF81000C0B28DF81900BDF81200000A48
:1042D0008DF81A00BDF81200C0B28DF81B00BDF8B1
:1042E0001400000A8DF81C00BDF81400C0B28DF84F
:1042F0001D00A8494968087806AB06221146FFF759
:1043000082F810B14FF0FF3051E700204FE701462F
:10431000A048007A30B1012807D0022809D003282C
:104320000FD10AE0FA2008800EE04FF4FA700880FE
:104330000AE04FF47A70088006E04FF4FA600880D3
:1043400002E00020088000BF00BF00207047014647
:104350009048407A30B1012807D0022808D00328BD
:104360000CD108E0022008700BE00420087008E07F
:104370000820087005E01020087002E04FF0FF30C0
:10438000704700BF8348C07C18B108784006000E13
:1043900008700020F4E701467E48C07A082817D24A
:1043A000DFE800F01704070A0D101318BC2008807E
:1043B00013E06220088010E02A2008800DE014201D
:1043C00008800AE00A20088007E00520088004E051
:1043D00000BF00BF0020088000BF00BF0020704762
:1043E00001466C4890F8240010B14FF0FF30704740
:1043F0006848C08908800020F9E70146002008804D
:10440000401E704701464FF0FF307047014661483B
:10441000007A30B1012807D0022808D003280CD137
:1044200008E05D4808600BE05C48086008E05C4814
:10443000086005E05B48086002E04FF0FF3070471D
:1044400000BF0020FBE701465248407A30B1012806
:1044500008D002280AD0032810D10BE04FF4804086
:1044600008800EE041F69C7008800AE04FF480500E
:10447000088006E04FF40060088002E04FF0FF3053
:10448000704700BF4348C07C10B1088840100880C6
:104490000020F5E701463F48007C08700020704787
:1044A00001463C48807A10B10120087001E00020EC
:1044B00008700020704738B504463648807A10B935
:1044C0004FF0FF3038BD334A1268117C314A5268D0
:1044D00010786B460222FEF7E5FF10B14FF0FF3077
:1044E000F0E79DF801009DF8001040EA012000B2BD
:1044F00020800020E6E72DE9FE4F074688469246D9
:104500001D46DDF830B000260024224890F8240033
:1045100010B1601EBDE8FE8F002028701D48807A13
:1045200010B94FF0FF30F5E71A48007C10B94FF092
:10453000FF30EFE71748007C10F0400F00D0B61CAA
:104540001448007C10F0200F00D0B61C1148007CED
:1045500010F0100F00D0B61C0E48007C10F0080FB1
:1045600000D0B61D0B4A1268917A0A4A5268107838
:104570006B460222FEF796FF10B14FF0FF30C9E7FD
:104580009DF801009DF8001040EA0129B1450BDAC1
:104590000020BFE7D000002000000343000083425A
:1045A0003333034233338341F84840684088B9EBE2
:1045B000600F17DDF54A1268517CF44A5268107892
:1045C0006B460122FEF76EFF10B14FF0FF30A1E7FE
:1045D0009DF8000010F0100F04D0FFF791F96FF074
:1045E000010097E75046FEF7B2FFE84A1268D17A19
:1045F000E64A526810786B463246FEF753FF10B118
:104600004FF0FF3086E799FBF6F0401E8BF8000074
:1046100000202870B44229D0DC48007C10F0080F3C
:1046200024D0601C1DF800001DF8041040EA012091
:1046300000B2A8F80000E01C1DF80010A01C1DF836
:10464000000041EA002000B2A8F80200601D1DF839
:104650000010201D1DF8000041EA002000B2A8F85B
:104660000400287840F008002870A41DB44212D03D
:10467000C648007C10F0400F0DD0601C1DF80000F3
:104680001DF8041040EA012000B23880287840F07C
:1046900040002870A41CB44212D0BC48007C10F02A
:1046A000200F0DD0601C1DF800001DF8041040EA1A
:1046B000012000B27880287840F020002870A41CE7
:1046C000B44212D0B148007C10F0100F0DD0601C25
:1046D0001DF800001DF8041040EA012000B2B88067
:1046E000287840F010002870A41C002012E7F8B5CC
:1046F00004460F461646A54890F8240010B94FF01E
:10470000FF30F8BDA148807A10B94FF0FF30F8E7CC
:104710009E4A1268917A9D4A526810786B4602222E
:10472000FEF7C0FE10B14FF0FF30EAE79DF8010040
:104730009DF8001040EA0125A54203DA0020307000
:10474000401EDEE7914840684088B5EB600F17DDFA
:104750008E4A1268517C8D4A526810786B4601224D
:10476000FEF7A0FE10B14FF0FF30CAE79DF8000041
:1047700010F0100F04D0FFF7C3F86FF00100C0E78E
:10478000E2B2824B1B68D97A804B5B6818783B4653
:10479000FEF788FE10B14FF0FF30B2E795FBF4F062
:1047A000401E30700020ACE70146784880F82210A7
:1047B000002070477CB5054674494968087801AB0C
:1047C00004220D21FEF76EFE08B107207CBD9DF886
:1047D0000700C0F301109DF8041001F0E00140EA69
:1047E000E1008DF800009DF80700C0F381009DF8FE
:1047F000051001F0E00140EAE1008DF801009DF8AC
:10480000070000F003009DF8061001F0E00140EA07
:10481000E1008DF8020000241CE01DF8040018B926
:10482000002045F8240013E0594845F8240006E02C
:1048300055F82400574901F0E1FD45F824001DF822
:104840000400401E10F0FF000DF80400F0D100BF7E
:10485000601CC4B2032CE0DB0020B7E72DE9FE4F5B
:1048600006460F4600256846FFF7A4FF002440E0F7
:1048700056F8240057F82410B0EB010A01D4514631
:1048800001E0CAF10001084601F047FF83464FF0FE
:104890008F4101F0E9FD80465DF82400002101F020
:1048A000B7FF16D05DF82410404601F0DDFD8246CA
:1048B0004FF07E5101F09CFD814629F0004A3648B8
:1048C000416A504601F0AEFF12D20120A0400543DC
:1048D0000EE03148C169404601F09AFF05D32E48E9
:1048E000016A404601F09EFF02D20120A04005432C
:1048F000641C032CBCDB2846BDE8FE8F2DE9FC5F61
:1049000006460F46002521494968087801AB032275
:104910000D21FEF7C7FD10B10720BDE8FC9F9DF8F3
:10492000040000F01F008DF804009DF8050000F061
:104930001F008DF805009DF8060000F01F008DF89F
:104940000600002460E056F8240057F82410B0EB6D
:10495000010B01D4594601E0CBF10001084601F0FA
:10496000DCFE4FF08F41009001F07EFD814601A8F2
:10497000005DC0B30849086801F0D8FE8346594677
:10498000064801F071FD80460FE00000D0000020D5
:104990007B14AE3E1D5A843FA073000800B04C4506
:1049A000FE49404601F02AFD804601A8005D401EF8
:1049B00010F0FF0001A90855F2D14146484601F028
:1049C00053FD83464FF07E5101F012FD82462AF0DE
:1049D000004BF3488169584601F024FF13D20120AF
:1049E000A04005430FE0FFE7ED480169484601F0AC
:1049F0000FFF05D3EA484169484601F013FF02D290
:104A00000120A0400543641C032C9CDB284684E75E
:104A10002DE9F04F87B005460C46914601208DF8F0
:104A2000100000208DF81100DE4A1268917CDD4AEA
:104A30005268107804AB0222FEF7E5FC20B14FF07B
:104A4000FF3007B0BDE8F08FC820FEF774FD0020EE
:104A50008DF81000D34A1268D17BD24A5268107880
:104A600004AB0122FEF7CFFC10B14FF0FF30E8E7B6
:104A7000CC4A12685179CB4A5268107804AB0122B3
:104A8000FEF7C1FC10B14FF0FF30DAE7C54A1268FB
:104A9000917CC44A5268107804AB0122FEF7B3FC43
:104AA00010B14FF0FF30CCE7BE4A1268D17DBD4A4D
:104AB0005268107804AB0122FEF7A5FC10B14FF04C
:104AC000FF30BEE7B74A12681179B64A52681078CB
:104AD00004AB0122FEF797FC10B14FF0FF30B0E7B6
:104AE0000C208DF81000AF4A12681179AD4A526857
:104AF000107804AB0122FEF786FC10B14FF0FF30B6
:104B00009FE70F20FEF717FDA648806A407A8DF8D0
:104B10001000A44A12689178A24A5268107804AB37
:104B20000122FEF770FC10B14FF0FF3089E79D487D
:104B3000806A007A8DF810009A4A12685178994A72
:104B40005268107804AB0122FEF75DFC10B14FF003
:104B5000FF3076E7B9F1000F07D09248806A807A7B
:104B600040F0E0008DF8100004E08E48806A807A02
:104B70008DF810008B4A126891798A4A5268107831
:104B800004AB0122FEF73FFC10B14FF0FF3058E7B5
:104B9000B9F1000F07D08348806AC07A40F0E00086
:104BA0008DF8100003E07E48C07A8DF810007D4A31
:104BB0001268D1797B4A5268107804AB0122FEF763
:104BC00022FC10B14FF0FF303BE7B9F1000F02D0EB
:104BD000C820FEF7B0FC40208DF81000714A126822
:104BE0001179704A5268107804AB0122FEF70BFC71
:104BF00010B14FF0FF3024E778208DF81000694A9B
:104C000012685179674A5268107804AB0122FEF7A6
:104C1000FAFB10B14FF0FF3013E761498889FEF7C6
:104C20008AFC00208DF810005E4A126851795D4AB6
:104C30005268107804AB0122FEF7E5FB10B14FF08B
:104C4000FF30FEE6574A1268917A564A5268107849
:104C500004AB0222FEF726FC10B14FF0FF30F0E665
:104C60009DF811009DF8101040EA012B0C209BFBD1
:104C7000F0F0C6B20020A86068602860A0606060A4
:104C80002060824665E0474A1268D17A454A5268F8
:104C9000107804AB0C22FEF705FC10B14FF0FF308A
:104CA000CFE69DF811009DF8101040EA012000B2F7
:104CB000ADF808009DF813009DF8121040EA01209D
:104CC00000B2ADF80A009DF815009DF8141040EAF6
:104CD000012000B2ADF80C00BDF9081020680844AE
:104CE0002060BDF90A10606808446060BDF90C10CE
:104CF000A0680844A0609DF817009DF8161040EACF
:104D0000012000B2ADF800009DF819009DF81810C0
:104D100040EA012000B2ADF802009DF81B009DF8AA
:104D20001A1040EA012000B2ADF80400BDF90010ED
:104D3000286808442860BDF9021068680844686063
:104D4000BDF90410A8680844A8600AF1010000F049
:104D5000FF0AB24597DB1248D0F800C02868C11797
:104D6000090441EA1041070462460023384601F075
:104D7000A1FA32460023CDE9020101F09BFA286036
:104D80000748D0F800C06868C117090441EA10411B
:104D9000070462460023384606E0000054E3853FDE
:104DA000A0730008D000002001F084FA32460023EE
:104DB000CDE9020101F07EFA6860FE48D0F800C03B
:104DC000A868C117090441EA10410704624600239C
:104DD000384601F06FFA32460023CDE9020101F0B6
:104DE00069FAA860F348D0F804C02168C817000425
:104DF00040EA11480F04624600233846414601F05C
:104E000059FA32460023CDE9020101F053FA20603D
:104E1000E848D0F804C06068C117090441EA1041AD
:104E2000070462460023384601F044FA3246002364
:104E3000CDE9020101F03EFA6060DE48D0F804C01E
:104E4000A068C117090441EA104107046246002323
:104E5000384601F02FFA32460023CDE9020101F075
:104E600029FAA060A068002804DDA068A0F58030C1
:104E7000A06003E0A06800F58030A0600020E0E5BD
:104E800038B50446CC4890F82400A04201D1002057
:104E900038BD24B3C84890F8250010B94FF0FF3052
:104EA000F6E70020FEF766FB0020FEF785FCC2490E
:104EB000C88CFEF7EAFE00200090BF4949680878D8
:104EC0006B4601222321FEF79EFA0121BA4880F8A1
:104ED00024100120FEF74EFBFEF712FD13E0002028
:104EE000FEF748FBB448007C0090B3494968087855
:104EF0006B4601222321FEF786FA0021AE4880F896
:104F00002410FEF7FDFC0020C2E72DE9F04F8DB024
:104F100083460F4602200C90A74890F8240020B149
:104F20000020FFF7ADFF012600E0002603A8FFF7F1
:104F3000EEF905A8FFF70BFA01A8FFF72CFA02A873
:104F4000FFF74EFA9C4890F80AA004A8FFF7A2FACF
:104F5000002407E0002239465846FFF759FD00B902
:104F600002E0641C022CF5DB00BF022C01D10025FD
:104F700028E0002407E0012206A909A8FFF748FD60
:104F800000B902E0641C022CF5DB00BF022C01D149
:104F9000002517E006A93846FFF760FC00F0FF087F
:104FA00009A95846FFF7AAFC00F0FF090025B9F14E
:104FB000000F01D145F00105B8F1000F01D145F016
:104FC000020500BFFF207C490872FF217A48417228
:104FD000C1724FF6FF71C181FF21817201740121FD
:104FE0000173BDF80C00FEF7DEFE9DF81400FEF71D
:104FF00098FEBDF80400FEF79CFDBDF80800FEF722
:1050000044FE5046FEF773FB9DF81000FEF75CFD72
:1050100016B10120FFF734FF28460DB0BDE8F08F30
:10502000F8B504460D46164616B94FF0FF30F8BDE8
:105030006148807A10B94FF0FF30F8E720128DF800
:105040000000E0B28DF801009DF8010028445A49A3
:1050500049684989884202DD4FF0FF30E7E7564A48
:105060001268117E544A526810786B460222FEF78D
:10507000CAF910B14FF0FF30D9E7EAB24E4B1B68C6
:10508000597D4D4B5B6818783346FEF7BCF910B17B
:105090004FF0FF30CBE70020C9E7F8B504460D46D6
:1050A000164616B94FF0FF30F8BD4348807A10B964
:1050B0004FF0FF30F8E720128DF80000E0B28DF8D5
:1050C00001009DF8010028443B494968498988420C
:1050D00002DD4FF0FF30E7E7374A1268117E364AAB
:1050E000526810786B460222FEF78DF910B14FF02E
:1050F000FF30D9E7EAB2304B1B68597D2E4B5B6815
:1051000018783346FEF7CEF910B14FF0FF30CBE7F9
:105110000020C9E72DE9F04385B005460E469046CC
:105120009946254890F8250020B14FF0FF3005B092
:10513000BDE8F08316B94FF0FF30F8E7002423E014
:10514000281B102801DD102000E0281B87B232192F
:1051500039462046FFF764FF10B14FF0FF30E6E715
:1051600001AA39462046FFF798FF10B14FF0FF30F3
:10517000DDE730193A4601A901F0DBF810B16FF014
:105180000100D4E7E01984B2AC42D9DB4FEA282011
:105190008DF8000008F0FF008DF80100064A126843
:1051A000917E054A526810786B460222FEF72BF971
:1051B00038B103E0A0730008D00000204FF0FF30AA
:1051C000B5E701218A4880F82510A0F82690002034
:1051D000ADE70146864890F824000870002070472B
:1051E00002464FF0FF30704701464FF0FF307047E6
:1051F000F8B505460F461446002C70D0B5F5FF5F94
:1052000001DDFF2605E0202D01DA012601E0C5F3CE
:10521000471607B90127282C02DD4FF0FF30F8BDF3
:105220007348407D28BB724890F8240038B10020B4
:10523000FFF726FE01216E4880F8201003E00021D0
:105240006B4880F820106A481630FFF760F868480D
:105250001830FFF77CF866481A30FFF79CF864486E
:105260001C30FFF7BDF86248817A81771F30FFF765
:1052700011F90020FEF77EF90020FEF799FC0020CE
:105280008DF800005A4A12689178594A526810788D
:105290006B460122FEF7B7F810B14FF0FF30BEE7C2
:1052A00040208DF80000524A1268D17B504A526863
:1052B00010786B460122FEF7A6F800B165E08DF884
:1052C00000608DF801704A4A1268117A484A5268A3
:1052D00010786B460222FEF796F808B155E047E0D9
:1052E0000520FEF728F94248407A072101EBC0006B
:1052F000C0B28DF800003E4A1268D1793C4A52682B
:1053000010786B460122FEF77EF800B13DE02020C8
:105310008DF80000012C03D100208DF801000EE073
:10532000052C03DC01208DF8010008E0142C03DCBF
:1053300002208DF8010002E003208DF801009DF8A5
:105340000100072101EB8010C0B28DF80100284A4E
:105350001268917C264A526810786B460222FEF74A
:1053600052F800B111E0012121484175002056E7B3
:105370001F4A1632002103E0505C00B105E0491CD1
:105380000C29F9D34FF0FF3049E7FF201849087284
:10539000FF2117484172C1724FF6FF71C181FF2191
:1053A00081720174012101730146887FFEF79FF924
:1053B0000F49C88AFEF7F7FC0D49087EFEF7B1FCDD
:1053C0000B49488BFEF7B5FB0949888BFEF75DFC5E
:1053D0000749C87FFEF778FB054890F8200010B118
:1053E0000120FFF74DFD002101484175002016E71F
:1053F000D000002010B5C8234FF48062F74940F672
:10540000F630FFF787FE10BD10B586B00446F4A055
:1054100000680390F3A000680290F3A00068019078
:10542000F2A00068009004F0030003A9085C8DF866
:10543000140003A8C4F3C101405C8DF8150003A853
:10544000C4F38111405C8DF8160004F0030002A93A
:10545000085C8DF8100002A8C4F3C101405C8DF80F
:10546000110002A8C4F38111405C8DF8120005AA56
:10547000032140F22640FFF7D3FD18B14FF0FF3073
:1054800006B010BD04AA032140F22A40FFF7C8FD70
:1054900010B14FF0FF30F3E70198059000980490A9
:1054A00014F0040F0BD09DF8140040F001008DF8AB
:1054B00014009DF8100040F001008DF8100014F069
:1054C000200F0BD09DF8150040F001008DF815005D
:1054D0009DF8110040F001008DF8110014F4807F58
:1054E0000BD09DF8160040F001008DF816009DF8D5
:1054F000120040F001008DF8120005AA03214FF4BC
:105500008860FFF78DFD10B14FF0FF30B8E704AAB7
:10551000032140F23140FFF783FD10B14FF0FF301F
:10552000AEE7B34804810020AAE71FB50446B0489F
:10553000007A00F0030054F820000190AC48007A93
:1055400010F0040F02D0019840420190A848007A60
:10555000C0F3C10054F820000290A548007A10F072
:10556000200F02D0029840420290A148007AC0F376
:10557000811054F8200003909D48008910F4807F2A
:1055800002D00398404203909A49019880FB0101A0
:10559000800F40EA810001909649029880FB01103B
:1055A000820042EA917002909249039880FB0110B8
:1055B000820042EA917003900198000E8DF800007D
:1055C0000198000C8DF801000198000A8DF8020086
:1055D0000198C0B28DF803006A4604214FF474703C
:1055E000FFF71EFD18B14FF0FF3004B010BD029858
:1055F000000E8DF800000298000C8DF80100029852
:10560000000A8DF802000298C0B28DF803006A46C5
:1056100004214FF47570FFF703FD10B14FF0FF3018
:10562000E3E70398000E8DF800000398000C8DF856
:1056300001000398000A8DF802000398C0B28DF8AB
:1056400003006A4604214FF47670FFF7E9FCCCE7CB
:1056500070B588B0064601A8FEF7F5FEBDF8040057
:105660000021C90341EA5045C4036148007A00F0B3
:10567000030056F8200005905D48007A10F0040FF2
:1056800002D00598404205905948007AC0F3C10005
:1056900056F8200006905648007A10F0200F02D0ED
:1056A0000698404206905248007AC0F3811056F89E
:1056B000200007904E48008910F4807F02D00798A0
:1056C000404207900598C117A0FB042301FB043159
:1056D00000FB0510810041EA927005900698C11701
:1056E000A0FB042301FB043100FB0510810041EA0B
:1056F000927006900798C117A0FB042301FB0431A8
:1057000000FB0510810041EA927007900598000E99
:105710008DF808000598000C8DF809000598000A1E
:105720008DF80A000598C0B28DF80B000698000E9F
:105730008DF80C000698000C8DF80D000698000AF4
:105740008DF80E000698C0B28DF80F000798000E75
:105750008DF810000798000C8DF811000798000ACA
:105760008DF812000798C0B28DF8130002AA0C2120
:105770004FF42570FFF754FC08B070BD30B585B00C
:1057800004461DA207CA02AB07C3C82C03DD4FF0B5
:10579000FF3005B030BDC82090FBF4F0401E85B24C
:1057A000280A8DF80000E8B28DF801006A4602214F
:1057B00040F21620FFF734FC10B14FF0FF30E8E75D
:1057C00002AA0C2140F6C120FFF72AFC10B14FF0CD
:1057D000FF30DEE7064884810020DAE7167400080F
:1057E0004CCD6C000CC92C0036567600264666005F
:1057F0001001002009E3CA02FEF2ABC4AAF1DFDF08
:10580000BBAFDFDF0146FC4880890880002070477D
:105810002DE9FC4706460F4616F0070F02D0B7F5F4
:10582000C86F03DD4FF0FF30BDE8FC87384600F05D
:105830007DFF8146F14900F017FE80466846FEF77D
:1058400086FD9DF80000022806D0042816D00828FE
:1058500026D0102848D135E04FF08D41404600F069
:10586000CDFD814600F091FF84B2E549404600F04D
:10587000C5FD814600F089FF85B238E04FF08C41CC
:10588000404600F0BBFD814600F07FFF84B2DD4959
:10589000404600F0B3FD814600F077FF85B226E078
:1058A0004FF08B41404600F0A9FD814600F06DFFAE
:1058B00084B2D549404600F0A1FD814600F065FF65
:1058C00085B214E04FF08A41404600F097FD8146D2
:1058D00000F05BFF84B2CD49404600F08FFD814669
:1058E00000F053FF85B202E04FF0FF309CE700BFAD
:1058F00020128DF80400E0B28DF8050028128DF812
:105900000600E8B28DF8070016F0010F14D001AAC6
:1059100002214FF4EA70FFF783FB10B14FF0FF3024
:1059200082E70DF1060202214FF49270FFF778FB37
:1059300010B14FF0FF3077E716F0020F14D001AA34
:1059400002214FF4EC70FFF76BFB10B14FF0FF300A
:105950006AE70DF1060202214FF49470FFF760FB35
:1059600010B14FF0FF305FE716F0040F14D001AA1A
:1059700002214FF4EE70FFF753FB10B14FF0FF30F0
:1059800052E70DF1060202214FF49670FFF748FB33
:1059900010B14FF0FF3047E7002045E738B5044627
:1059A0000020009014F0010F04D09DF8000040F09A
:1059B0003000009014F0020F04D09DF8000040F079
:1059C0000C00009014F0040F04D09DF8000040F08B
:1059D000030000906A4601214FF4A470FFF720FBFA
:1059E00038BD38B50446012C01DA012402E0042C4C
:1059F00000DD0424601EC0B200906A46012140F21E
:105A00004F10FFF70DFB38BD38B50446052094FB59
:105A1000F0F085B228128DF80000E8B28DF8010090
:105A20006A4602214FF4EF70FFF7FAFA38BD38B535
:105A30000446052094FBF0F085B228128DF8000092
:105A4000E8B28DF801006A4602214FF4ED70FFF7CD
:105A5000E7FA38BDF8B505460E464FF47A7095FB67
:105A6000F0F000FB06F4200E8DF80000200C8DF8FD
:105A70000100200A8DF80200E0B28DF803006A46AA
:105A800004214FF4AE70FFF7CBFAF8BD38B50446E9
:105A9000052094FBF0F084B220128DF80000E0B2F3
:105AA0008DF801006A4602214FF4AD70FFF7B8FA95
:105AB00038BD38B50446052094FBF0F084B22012BE
:105AC0008DF80000E0B28DF801006A4602214FF423
:105AD000AC70FFF7A5FA38BD38B5044614B94FF0DD
